{
  "_format": "hh-sol-artifact-1",
  "contractName": "Crowdfunding",
  "sourceName": "contracts/Crowdfunding.sol",
  "abi": [
    {
      "inputs": [
        {
          "internalType": "uint256",
          "name": "",
          "type": "uint256"
        }
      ],
      "name": "campaigns",
      "outputs": [
        {
          "internalType": "address",
          "name": "owner",
          "type": "address"
        },
        {
          "internalType": "string",
          "name": "title",
          "type": "string"
        },
        {
          "internalType": "string",
          "name": "description",
          "type": "string"
        },
        {
          "internalType": "uint256",
          "name": "target",
          "type": "uint256"
        },
        {
          "internalType": "uint256",
          "name": "deadline",
          "type": "uint256"
        },
        {
          "internalType": "uint256",
          "name": "amountCollected",
          "type": "uint256"
        },
        {
          "internalType": "string",
          "name": "image",
          "type": "string"
        }
      ],
      "stateMutability": "view",
      "type": "function"
    },
    {
      "inputs": [
        {
          "internalType": "address",
          "name": "_owner",
          "type": "address"
        },
        {
          "internalType": "string",
          "name": "_title",
          "type": "string"
        },
        {
          "internalType": "string",
          "name": "_description",
          "type": "string"
        },
        {
          "internalType": "uint256",
          "name": "_target",
          "type": "uint256"
        },
        {
          "internalType": "uint256",
          "name": "_deadline",
          "type": "uint256"
        },
        {
          "internalType": "string",
          "name": "_image",
          "type": "string"
        }
      ],
      "name": "createCampaign",
      "outputs": [
        {
          "internalType": "uint256",
          "name": "",
          "type": "uint256"
        }
      ],
      "stateMutability": "nonpayable",
      "type": "function"
    },
    {
      "inputs": [
        {
          "internalType": "uint256",
          "name": "_id",
          "type": "uint256"
        }
      ],
      "name": "donateToCampaign",
      "outputs": [],
      "stateMutability": "payable",
      "type": "function"
    },
    {
      "inputs": [],
      "name": "getCampaign",
      "outputs": [
        {
          "components": [
            {
              "internalType": "address",
              "name": "owner",
              "type": "address"
            },
            {
              "internalType": "string",
              "name": "title",
              "type": "string"
            },
            {
              "internalType": "string",
              "name": "description",
              "type": "string"
            },
            {
              "internalType": "uint256",
              "name": "target",
              "type": "uint256"
            },
            {
              "internalType": "uint256",
              "name": "deadline",
              "type": "uint256"
            },
            {
              "internalType": "uint256",
              "name": "amountCollected",
              "type": "uint256"
            },
            {
              "internalType": "string",
              "name": "image",
              "type": "string"
            },
            {
              "internalType": "address[]",
              "name": "donators",
              "type": "address[]"
            },
            {
              "internalType": "uint256[]",
              "name": "donations",
              "type": "uint256[]"
            }
          ],
          "internalType": "struct Crowdfunding.Campaign[]",
          "name": "",
          "type": "tuple[]"
        }
      ],
      "stateMutability": "view",
      "type": "function"
    },
    {
      "inputs": [
        {
          "internalType": "uint256",
          "name": "_id",
          "type": "uint256"
        }
      ],
      "name": "getDonators",
      "outputs": [
        {
          "internalType": "address[]",
          "name": "",
          "type": "address[]"
        },
        {
          "internalType": "uint256[]",
          "name": "",
          "type": "uint256[]"
        }
      ],
      "stateMutability": "view",
      "type": "function"
    },
    {
      "inputs": [],
      "name": "numberOfCampaigns",
      "outputs": [
        {
          "internalType": "uint256",
          "name": "",
          "type": "uint256"
        }
      ],
      "stateMutability": "view",
      "type": "function"
    }
  ],
  "bytecode": "0x6080604052600060015534801561001557600080fd5b50610f1c806100256000396000f3fe6080604052600436106100555760003560e01c806307ca140d1461005a5780630fa91fa914610083578063141961bc146100b1578063236b8e3a146100e457806342a4fda8146101065780639943e3a11461011b575b600080fd5b34801561006657600080fd5b5061007060015481565b6040519081526020015b60405180910390f35b34801561008f57600080fd5b506100a361009e366004610a0a565b61013b565b60405161007a929190610a23565b3480156100bd57600080fd5b506100d16100cc366004610a0a565b61020a565b60405161007a9796959493929190610af4565b3480156100f057600080fd5b506100f96103e7565b60405161007a9190610bd2565b610119610114366004610a0a565b610794565b005b34801561012757600080fd5b50610070610136366004610d82565b610856565b600081815260208181526040918290206007810180548451818502810185019095528085526060948594929360080192909184918301828280156101a857602002820191906000526020600020905b81546001600160a01b0316815260019091019060200180831161018a575b50505050509150808054806020026020016040519081016040528092919081815260200182805480156101fa57602002820191906000526020600020905b8154815260200190600101908083116101e6575b5050505050905091509150915091565b600060208190529081526040902080546001820180546001600160a01b03909216929161023690610e3b565b80601f016020809104026020016040519081016040528092919081815260200182805461026290610e3b565b80156102af5780601f10610284576101008083540402835291602001916102af565b820191906000526020600020905b81548152906001019060200180831161029257829003601f168201915b5050505050908060020180546102c490610e3b565b80601f01602080910402602001604051908101604052809291908181526020018280546102f090610e3b565b801561033d5780601f106103125761010080835404028352916020019161033d565b820191906000526020600020905b81548152906001019060200180831161032057829003601f168201915b50505050509080600301549080600401549080600501549080600601805461036490610e3b565b80601f016020809104026020016040519081016040528092919081815260200182805461039090610e3b565b80156103dd5780601f106103b2576101008083540402835291602001916103dd565b820191906000526020600020905b8154815290600101906020018083116103c057829003601f168201915b5050505050905087565b6060600060015467ffffffffffffffff81111561040657610406610cdf565b60405190808252806020026020018201604052801561048f57816020015b61047c60405180610120016040528060006001600160a01b0316815260200160608152602001606081526020016000815260200160008152602001600081526020016060815260200160608152602001606081525090565b8152602001906001900390816104245790505b50905060005b60015481101561078e57600081815260208181526040918290208251610120810190935280546001600160a01b03168352600181018054919392849290840191906104df90610e3b565b80601f016020809104026020016040519081016040528092919081815260200182805461050b90610e3b565b80156105585780601f1061052d57610100808354040283529160200191610558565b820191906000526020600020905b81548152906001019060200180831161053b57829003601f168201915b5050505050815260200160028201805461057190610e3b565b80601f016020809104026020016040519081016040528092919081815260200182805461059d90610e3b565b80156105ea5780601f106105bf576101008083540402835291602001916105ea565b820191906000526020600020905b8154815290600101906020018083116105cd57829003601f168201915b5050505050815260200160038201548152602001600482015481526020016005820154815260200160068201805461062190610e3b565b80601f016020809104026020016040519081016040528092919081815260200182805461064d90610e3b565b801561069a5780601f1061066f5761010080835404028352916020019161069a565b820191906000526020600020905b81548152906001019060200180831161067d57829003601f168201915b50505050508152602001600782018054806020026020016040519081016040528092919081815260200182805480156106fc57602002820191906000526020600020905b81546001600160a01b031681526001909101906020018083116106de575b505050505081526020016008820180548060200260200160405190810160405280929190818152602001828054801561075457602002820191906000526020600020905b815481526020019060010190808311610740575b50505050508152505083838151811061076f5761076f610e70565b602002602001018190525050808061078690610e9c565b915050610495565b50919050565b600081815260208181526040808320600781018054600180820183559186528486200180546001600160a01b0319163317905560088201805491820181558552928420349301839055805491519293909290916001600160a01b03169084908381818185875af1925050503d806000811461082b576040519150601f19603f3d011682016040523d82523d6000602084013e610830565b606091505b5050905080156108505782826005015461084a9190610eb7565b60058301555b50505050565b6001546000908152602081905260408120600481015442116108d25760405162461bcd60e51b815260206004820152602b60248201527f54686520446561646c696e652073686f756c642062652061206461746520696e60448201526a207468652066757475726560a81b606482015260840160405180910390fd5b80546001600160a01b0319166001600160a01b038916178155865161090090600183019060208a0190610971565b5085516109169060028301906020890190610971565b5060038101859055600481018490556000600582015582516109419060068301906020860190610971565b506001805490600061095283610e9c565b9190505550600180546109659190610ecf565b98975050505050505050565b82805461097d90610e3b565b90600052602060002090601f01602090048101928261099f57600085556109e5565b82601f106109b857805160ff19168380011785556109e5565b828001600101855582156109e5579182015b828111156109e55782518255916020019190600101906109ca565b506109f19291506109f5565b5090565b5b808211156109f157600081556001016109f6565b600060208284031215610a1c57600080fd5b5035919050565b604080825283519082018190526000906020906060840190828701845b82811015610a655781516001600160a01b031684529284019290840190600101610a40565b5050508381038285015284518082528583019183019060005b81811015610a9a57835183529284019291840191600101610a7e565b5090979650505050505050565b6000815180845260005b81811015610acd57602081850181015186830182015201610ab1565b81811115610adf576000602083870101525b50601f01601f19169290920160200192915050565b6001600160a01b038816815260e060208201819052600090610b1890830189610aa7565b8281036040840152610b2a8189610aa7565b90508660608401528560808401528460a084015282810360c0840152610b508185610aa7565b9a9950505050505050505050565b600081518084526020808501945080840160005b83811015610b975781516001600160a01b031687529582019590820190600101610b72565b509495945050505050565b600081518084526020808501945080840160005b83811015610b9757815187529582019590820190600101610bb6565b60006020808301818452808551808352604092508286019150828160051b87010184880160005b83811015610cd157888303603f19018552815180516001600160a01b0316845261012088820151818a870152610c3182870182610aa7565b9150508782015185820389870152610c498282610aa7565b606084810151908801526080808501519088015260a0808501519088015260c080850151888303828a01529193509150610c838382610aa7565b9250505060e08083015186830382880152610c9e8382610b5e565b925050506101008083015192508582038187015250610cbd8183610ba2565b968901969450505090860190600101610bf9565b509098975050505050505050565b634e487b7160e01b600052604160045260246000fd5b600082601f830112610d0657600080fd5b813567ffffffffffffffff80821115610d2157610d21610cdf565b604051601f8301601f19908116603f01168101908282118183101715610d4957610d49610cdf565b81604052838152866020858801011115610d6257600080fd5b836020870160208301376000602085830101528094505050505092915050565b60008060008060008060c08789031215610d9b57600080fd5b86356001600160a01b0381168114610db257600080fd5b9550602087013567ffffffffffffffff80821115610dcf57600080fd5b610ddb8a838b01610cf5565b96506040890135915080821115610df157600080fd5b610dfd8a838b01610cf5565b9550606089013594506080890135935060a0890135915080821115610e2157600080fd5b50610e2e89828a01610cf5565b9150509295509295509295565b600181811c90821680610e4f57607f821691505b6020821081141561078e57634e487b7160e01b600052602260045260246000fd5b634e487b7160e01b600052603260045260246000fd5b634e487b7160e01b600052601160045260246000fd5b6000600019821415610eb057610eb0610e86565b5060010190565b60008219821115610eca57610eca610e86565b500190565b600082821015610ee157610ee1610e86565b50039056fea2646970667358221220ba994ce256d64d5be5ceb8b1533b61275da6690e103efc579defe8ab99dc5ccd64736f6c63430008090033",
  "linkReferences": {},
  "deployedLinkReferences": {}
}